:020000040000FA
:040000000DEF00F010
:040008004FEF03F0C3
:10001800FF0092EF03F03701E0B715EF00F017EF9C
:1000280000F094EF00F060005FF0E1F760005BF033
:10003800E2F760000FF0E5F764EF00F020EE07F05C
:100048000150D9260250DA22DF50ED6F20EE06F07B
:100058000150D9260250DA22DF50EC6F20EE05F06D
:100068000150D9260250DA22DF50EB6F20EE04F05F
:100078000150D9260250DA22DF50EA6F20EE03F051
:100088000150D9260250DA22DF50E96F20EE02F043
:100098000150D9260250DA22DF50E86F20EE01F035
:1000A8000150D9260250DA22DF50E76F600007F0CE
:1000B800D9FF60000BF0DAFFDF50E66F91EF00F038
:1000C8000350046E056A0550000AD8B46EEF00F0BC
:1000D80022EF00F00450010AD8B45AEF00F0030AE6
:1000E800D8B452EF00F0010AD8B44AEF00F0070A7A
:1000F800D8B442EF00F0010AD8B43AEF00F0030A8E
:10010800D8B432EF00F0010AD8B42AEF00F00F0A91
:10011800D8B422EF00F022EF00F0E0879CEF01F066
:10012800D0B799EF00F09BEF00F017EF01F06000F7
:100138005FF0D1F760005BF0D2F7010ED56FE7EF03
:1001480000F020EE07F00150D9260250DA22DF50E5
:10015800DD6F20EE06F00150D9260250DA22DF507A
:10016800DC6F20EE05F00150D9260250DA22DF506C
:10017800DB6F20EE04F00150D9260250DA22DF505E
:10018800DA6F20EE03F00150D9260250DA22DF5050
:10019800D96F20EE02F00150D9260250DA22DF5042
:1001A800D86F20EE01F00150D9260250DA22DF5034
:1001B800D76F600007F0D9FF60000BF0DAFFDF505F
:1001C800D66F14EF01F00350046E056A0550000A5B
:1001D800D8B4F1EF00F014EF01F00450000AD8B4DD
:1001E800DDEF00F0010AD8B4D5EF00F0030AD8B467
:1001F800CDEF00F0010AD8B4C5EF00F0070AD8B473
:10020800BDEF00F0010AD8B4B5EF00F0030AD8B486
:10021800ADEF00F0010AD8B4A5EF00F014EF01F03B
:10022800D0879CEF01F0C0B71CEF01F01EEF01F082
:100238009AEF01F060005FF0C1F760005BF0C2F771
:10024800010EC56F6AEF01F020EE07F00150D926C4
:100258000250DA22DF50CD6F20EE06F00150D92689
:100268000250DA22DF50CC6F20EE05F00150D9267B
:100278000250DA22DF50CB6F20EE04F00150D9266D
:100288000250DA22DF50CA6F20EE03F00150D9265F
:100298000250DA22DF50C96F20EE02F00150D92651
:1002A8000250DA22DF50C86F20EE01F00150D92643
:1002B8000250DA22DF50C76F600007F0D9FF6000F4
:1002C8000BF0DAFFDF50C66F97EF01F00350046EB2
:1002D800056A0550000AD8B474EF01F097EF01F0F1
:1002E8000450000AD8B460EF01F0010AD8B458EFFE
:1002F80001F0030AD8B450EF01F0010AD8B448EF6E
:1003080001F0070AD8B440EF01F0010AD8B438EF79
:1003180001F0030AD8B430EF01F0010AD8B428EF8D
:1003280001F097EF01F0C0879CEF01F00FEF00F0AC
:1003380012003701F5510F0B030AD8A4A6EF01F0FC
:10034800A8EF01F0BDEF01F0EE0EF619D8A4AFEF5B
:1003580001F0B1EF01F0BDEF01F0010E3D016C6F4E
:100368006D00DFFF6EFD6D00E3FF6BFD738B04EF27
:1003780002F0F5510F0B030AD8A4C5EF01F0C7EF3F
:1003880001F004EF02F0DD0EF619D8A4CEEF01F06B
:10039800D0EF01F004EF02F06D00E3FF6CFD6D009B
:1003A800DFFF6EFD3D01738B000E0C6EEFEF01F069
:1003B8003D0178A1E2EF01F0E4EF01F0DCEF01F09C
:1003C800749D060E0C24D96EDA6A000EDA226F00CC
:1003D800ABF5DFFF0C2A0C503701F85DD8B0F7EF0A
:1003E80001F0F9EF01F0DCEF01F03D01749F060E1A
:1003F800016E000E026E6D00E0FF03F00FEC00F0DE
:100408001200136E60004CF017F0600044F016F014
:100418000B0E3A01ED6F330E0A6F800E8F6E8E5001
:10042800E00B800AD8A41BEF02F01DEF02F013EFD7
:1004380002F03701A069E00EA16FA469E00EA56F74
:10044800E00EB86F000EB96F60005FF0A8F71650A5
:10045800E00BA96F60005FF0ACF71650E00BAD6FD2
:1004680060005FF0B0F71650E00BB16F60005FF00E
:10047800B4F71650E00BB56FBC69E00EBD6F000E07
:10048800916E000E006F010E036F980E046F810EBF
:10049800056F000E8F6E6F0038FE12F0E00E121618
:1004A800D8A459EF02F05BEF02F04FEF02F03901E8
:1004B800A5919581A59395831200600E3901D96F96
:1004C800030EDF6F000EBA6E000EBB6E000EBC6E20
:1004D800C268FB0EC36EE70EC46E000E3A01606F71
:1004E800000E506F000E406F000E816F000E516FAE
:1004F8004169000E616F000E426F000E526F180EB8
:10050800626F436953696369446954696469080E91
:10051800846F140EE46F210E136F220E146F130EE6
:10052800E36F010E6A6F010E6B6F400E3D01746F31
:10053800010E756F030E7B6F6C69840E736FCA387A
:10054800E8461F0B1F0B4009146ECA38E846E00B3B
:10055800E00B156E600054F011F0145005EC02F039
:10056800D29AD28E3901938393859381958B120009
:100578003901A5A1C2EF02F0C4EF02F0E5EF02F0E5
:1005880080AEC9EF02F0CBEF02F0E1EF02F0855048
:100598000F0BE806D8A4D3EF02F0D5EF02F0E1EF95
:1005A80002F08628D8A4DBEF02F0DDEF02F0E1EFDD
:1005B80002F0FF0E85EC03F0809E3901A59105EF4E
:1005C80003F0A5A3EAEF02F0ECEF02F005EF03F069
:1005D8003701F0AFF2EF02F0F4EF02F003EF03F0AF
:1005E800F0A7F9EF02F0FBEF02F0FFEF02F06BEC7F
:1005F80003F001EF03F09DEC01F03701F09F3901A2
:10060800A5931200010E0E6E000E3D016C6F0E5088
:100618000E246E6F738B000E096E000E086E085064
:10062800066E0950076E084A092A07BE25EF03F02F
:10063800F40E065C010E0758D8A025EF03F027EF4B
:1006480003F013EF03F03D0174BB2DEF03F02FEF20
:1006580003F03BEF03F00A68600038F00BF00A0E75
:10066800016E000E026E020E036E0FEC00F00E2AF1
:100678007F0E0E6442EF03F044EF03F008EF03F03F
:100688000C680D680C0E016E000E026E020E036EF1
:100698000FEC00F012003901A5B155EF03F057EF48
:1006A80003F05EEF03F0A5A35CEF03F05EEF03F049
:1006B80062EF03F0BCEC02F06AEF03F0A5AB67EF62
:1006C80003F069EF03F06AEF03F0A59B110071EFE7
:1006D80003F006EC03F084EF03F03701F5510F0B3C
:1006E8000F6E106A1050000AD8B47DEF03F084EF43
:1006F80003F00F50010AD8B46DEF03F084EF03F054
:100708001200066E600018F007F0070E016E000E6A
:10071800026E010E036E0FEC00F01200080ED56E8B
:10072800000ED66E000ED76E000EF86E00019DEF1B
:0E07380003F061EC02F09FEF03F00DEF00F014
:020000040020DA
:10000000FF0FFF0FFF0FFF0FFF0FFF0FFF0FFF0F80
:020000040030CA
:0A000000ECFFF7FF9FFFFFFFFFFF7B
:00000001FF
