:020000040000FA
:020000002D28A9
:100008007E1480312000911D0A280B282B2891117D
:100018002400951B102811281528151F14281528A9
:100028001828110895131513141D1B281C281E28A1
:1000380091012928941E2128222828281108F00037
:1000480070082000BF0029281108240015167E100A
:1000580009002E282000BE01BF017E102000342890
:100068008331852380312000AA01AB0120002A08B2
:10007800323E860087018101810A2A08363E8600C1
:10008800870181012A083A3E8600870181010130F3
:10009800AA070030AB3D2B08803AA0008030200230
:1000A800031D582804302A02031C5B285C283A28C0
:1000B8001C29B201B601B60ABA01BA0AB301033063
:1000C800A0002008B700BB01BB0A45290330A000E7
:1000D8002008B200B601BA01BA0A45290330A000C7
:1000E8002008B200B601BA01BA0AB3010230A00072
:1000F8002008B700BB01BB0AB401B40A0230A00053
:100108002008B800BC01BC0A45290330A00020081B
:10011800B200B601BA01BA0A0230A0002008B30042
:10012800B701B70ABB01BB0A0230A0002008B4001F
:10013800B80186280330A0002008B200B601BA0131
:10014800BA0A0230A0002008B300B701BB01BB0AFD
:10015800B401B40A0230A0002008B8008628033091
:10016800A0002008B200B601BA01BA0AB301B30A66
:10017800B70167280330A0002008B200B601BA0111
:10018800BA0AB301B30AB701BB01BB0AB401023012
:10019800A0002008B800BC01BC0AB501B50A0230AD
:1001A800A0002008B900BD01BD0A45290330A00000
:1001B8002008B200B601BA01BA0AB301B30AB701FE
:1001C800BB01BB0A0230A0002008B400B801BC0182
:1001D800BC0A0230A0002008B500B901B90AD72826
:1001E8000330A0002008B200B601BA01BA0AB30170
:1001F800B30AB701BB01BB0A0230A0002008B40053
:10020800B801CF28B201B20A0330A0002008B60016
:10021800BA01BA0A0330A0002008B300B701B70A30
:10022800BB01BB0AB4010330A0002008B80086282F
:1002380020003F08A000A1012108003A0319252940
:1002480045292008003A03195D28113A03196A283C
:10025800223A03197228663A03198928223A03199F
:100268009E28FF3A0319B328113A0319BE28223AE7
:100278000319DA28663A0319F428223A03190629D9
:1002880045293F08A0002008BE00A201A3012000C4
:10029800AC01AD012000A401A5010530F200003039
:1002A800F30020002308F5002208F4008231D1224F
:1002B80080317308803A2000A0002508803A200287
:1002C800031D682924087202031C6B296C298C29D8
:1002D80020002C08363E860087010108A00020086F
:1002E800F2002C083A3E860087010108031D7D298B
:1002F8007F29013080290030A1002108F3002C0853
:10030800323E8600870101088331302380319329EA
:10031800F201F20AF30100308331302380310130D9
:100328002000A4070030A53D2508803AA0008030B1
:100338002002031DA1290A302402031CA429A5298F
:10034800512901302000AC070030AD3D2D08803A1E
:10035800A00080302002031DB32904302C02031CA6
:10036800B629B7294E2901302000A2070030A33D45
:100378002308803AA00080302002031DC5293230AE
:100388002202031CC829C9294B29D02922008C1212
:100398001A2A22008C161A2A20003F08A000A10160
:1003A8002108003A0319D929CD292008003A031950
:1003B800CA29CD29AE01AF0120002E08363E86009D
:1003C80087010108A0002008F2002E083A3E8600A6
:1003D80087010108031DF129F3290130F4290030B0
:1003E800A1002108F3002E08323E8600870101088B
:1003F80083313023803103302000A0009730890BEF
:10040800032AA00B032A003201302000AE07003077
:10041800AF3D2F08803AA00080302002031D162A25
:1004280004302E02031C192A1A2AE02920003E084B
:100438003F060319202A212ADE2922008C122000D7
:10044800A601A7012708803AA00080302002031DDA
:100458002F2A32302602031C322A332A342AC22A8F
:100468002000B001B1013108803AA000803020029C
:10047800031D402A04303002031C432A442A452A1B
:10048800B02A2000A801A9012908803AA0008030DC
:100498002002031D512A0A302802031C542A552A17
:1004A800562A9E2A0530F2000030F3002000270863
:1004B800F5002608F4008231D12280317308803A91
:1004C8002000A0002908803A2002031D6D2A280870
:1004D8007202031C702A712A792AF201F20AF301C6
:1004E8000030833130238031982A20003008363E8E
:1004F800860087010108A0002008F20030083A3E73
:10050800860087010108031D8A2A8C2A01308D2A5A
:100518000030A1002108F3003008323E8600870130
:10052800010883313023803101302000A8070030D2
:10053800A93D482A01302000B0070030B13D3108FC
:10054800803AA00080302002031DAC2A043030021B
:10055800031CAF2AB02A452A01302000A607003024
:10056800A73D2708803AA00080302002031DBE2A3C
:1005780032302602031CC12AC22A342A0430200041
:10058800A1000C30A0003330890BC82AA00BC82A60
:10059800A10BC82A003237282D28F801F31FD52AC5
:1005A800D62ADD2AF209F309F20A0319F30AF80137
:1005B800F80AF51FE02AE12AEA2AF409F509F40AFB
:1005C8000319F50A0130F6007608F806F901FA0170
:1005D800720873040319F12AF22A212BF701F70A8A
:1005E800FE2A0130F235F30D890BF62A0130F600A8
:1005F8007608F707F31F012B022BF52A0130F9358E
:10060800FA0D890B032B73087502031D0D2B720855
:100618007402031C102B112B162B7208F40273089A
:10062800F53B79140130F336F20C890B172B0130A6
:10063800F702031D202B212B022B78080319252BE9
:10064800262B2B2BF909FA09F90A0319FA0A7A0851
:10065800F3007908F2000800F8003F3021008E000E
:100668007308031D382B392B3C2BF601F7014C2B53
:100678000130F4000030F5007808023E890A462B64
:10068800F435F50D890B442B7408F6007508F7004E
:10069800760822008E00780872020318542B552B16
:1006A8006D2B0130F40072087802890A5C2BF4354E
:1006B800890B5B2B7408013EF5007208023E890A1B
:1006C800662BF535890B652B7508FF3A21008E00DE
:1006D800842B0130F40078087202890A742BF435EF
:1006E800890B732B7408013EF5007808023E890ACD
:1006F8007E2BF535890B7D2B7508FF3A21008E007E
:10070800080070302100990007308C003F308E00BF
:1007180023008E018C01073024008C0021009513E2
:100728008030240094003630950001309600200077
:100738000C350E398038240092008B170B172000D7
:08074800911121009115080038
:020000040001F9
:04000E00E4FFFFFF0D
:00000001FF
