:020000040000FA
:020000002D28A9
:100008007E1480312000911D0A280B282B2891117D
:100018002400951B102811281528151F14281528A9
:100028001828110895131513141D1B281C281E28A1
:1000380091012928941E2128222828281108F00037
:1000480070082000BF0029281108240015167E100A
:1000580009002E282000BE01BF017E102000342890
:1000680083319A2380312000AA01AB0120002A089D
:10007800323E860087018101810A2A08363E8600C1
:10008800870181012A083A3E8600870181010130F3
:10009800AA070030AB3D2B08803AA0008030200230
:1000A800031D582804302A02031C5B285C283A28C0
:1000B8002B29B201B601B60ABA01BA0AB301033054
:1000C800A0002008B700BB01BB0A5A290330A000D2
:1000D8002008B200B601BA01BA0A5A290330A000B2
:1000E8002008B200B601BA01BA0AB3010230A00072
:1000F8002008B700BB01BB0AB401B40A0230A00053
:100108002008B800BC01BC0A5A290330A000200806
:10011800B200B601BA01BA0A0230A0002008B30042
:10012800B701B70ABB01BB0A0230A0002008B4001F
:10013800B80186280330A0002008B200B601BA0131
:10014800BA0A0230A0002008B300B701BB01BB0AFD
:10015800B401B40A0230A0002008B8008628033091
:10016800A0002008B200B601BA01BA0AB301B30A66
:10017800B70167280330A0002008B200B601BA0111
:10018800BA0AB301B30AB701BB01BB0AB401023012
:10019800A0002008B800BC01BC0AB501B50A0230AD
:1001A800A0002008B900BD01BD0A5A290330A000EB
:1001B8002008B200B601BA01BA0AB301B30AB701FE
:1001C800BB01BB0A0230A0002008B400B801BC0182
:1001D800BC0A0230A0002008B500B901B90AD72826
:1001E8000330A0002008B200B601BA01BA0AB30170
:1001F800B30AB701BB01BB0A0230A0002008B40053
:10020800B801CF28B201B20A0330A0002008B60016
:10021800BA01BA0A0330A0002008B300B701B70A30
:10022800BB01BB0AB4010330A0002008B80086282F
:10023800B201B20A0330A0002008B600BA01BA0A17
:100248000330A0002008B300B701B70A67282000D0
:100258003F08A000A1012108003A031934295D28AC
:100268002008003A03195D280F3A03195D281E3A41
:1002780003196A28223A03197228663A0319892849
:10028800223A03199E28FF3A0319B328113A031991
:10029800BE28223A0319DA28663A0319F428333AB1
:1002A80003190629113A03191C295D283F08A000E3
:1002B8002008BE00A201A3012000AC01AD0120006E
:1002C800A401A5010530F2000030F3002000230846
:1002D800F5002208F4008231E62280317308803A62
:1002E8002000A0002508803A2002031D7D2924084B
:1002F8007202031C80298129A12920002C08363E7E
:10030800860087010108A0002008F2002C083A3E68
:10031800860087010108031D922994290130952937
:100328000030A1002108F3002C08323E8600870126
:100338000108833145238031A829F201F20AF3012B
:10034800003083314523803101302000A40700307C
:10035800A53D2508803AA00080302002031DB6295B
:100368000A302402031CB929BA2966290130200061
:10037800AC070030AD3D2D08803AA0008030200247
:10038800031DC82904302C02031CCB29CC2963295E
:1003980001302000A2070030A33D2308803AA000C6
:1003A80080302002031DDA2932302202031CDD29A5
:1003B800DE296029E52922008C122F2A22008C16BA
:1003C8002F2A20003F08A000A1012108003A0319A4
:1003D800EE29E2292008003A0319DF29E229AE01B3
:1003E800AF0120002E08363E860087010108A000D4
:1003F8002008F2002E083A3E860087010108031DF6
:10040800062A082A0130092A0030A1002108F30031
:100418002E08323E8600870101088331452380314A
:1004280003302000A0009730890B182AA00B182A47
:10043800003201302000AE070030AF3D2F08803A6F
:10044800A00080302002031D2B2A04302E02031C3A
:100458002E2A2F2AF52920003E083F060319352A9F
:10046800362AF32922008C122000A601A7012708AA
:10047800803AA00080302002031D442A3230260230
:10048800031C472A482A492AD72A2000B001B1016B
:100498003108803AA00080302002031D552A04301C
:1004A8003002031C582A592A5A2AC52A2000A801B2
:1004B800A9012908803AA00080302002031D662A7D
:1004C8000A302802031C692A6A2A6B2AB32A0530D3
:1004D800F2000030F30020002708F5002608F40099
:1004E8008231E62280317308803A2000A000290872
:1004F800803A2002031D822A28087202031C852ADA
:10050800862A8E2AF201F20AF3010030833145234C
:100518008031AD2A20003008363E86008701010868
:10052800A0002008F20030083A3E86008701010842
:10053800031D9F2AA12A0130A22A0030A100210808
:10054800F3003008323E86008701010883314523D5
:10055800803101302000A8070030A93D5D2A013014
:100568002000B0070030B13D3108803AA00080304B
:100578002002031DC12A04303002031CC42AC52AE4
:100588005A2A01302000A6070030A73D2708803AE4
:10059800A00080302002031DD32A32302602031C1B
:1005A800D62AD72A492A04302000A1000C30A000FE
:1005B8003330890BDD2AA00BDD2AA10BDD2A00329E
:1005C80037282D28F801F31FEA2AEB2AF22AF20924
:1005D800F309F20A0319F30AF801F80AF51FF52AD4
:1005E800F62AFF2AF409F509F40A0319F50A013075
:1005F800F6007608F806F901FA017208730403197F
:10060800062B072B362BF701F70A132B0130F2358F
:10061800F30D890B0B2B0130F6007608F707F31F53
:10062800162B172B0A2B0130F935FA0D890B182BCD
:1006380073087502031D222B72087402031C252BF4
:10064800262B2B2B7208F4027308F53B7914013022
:10065800F336F20C890B2C2B0130F702031D352BD6
:10066800362B172B780803193A2B3B2B402BF9090B
:10067800FA09F90A0319FA0A7A08F3007908F20064
:100688000800F8003F3021008E007308031D4D2B31
:100698004E2B512BF601F701612B0130F40000308D
:1006A800F5007808023E890A5B2BF435F50D890BB5
:1006B800592B7408F6007508F700760822008E009A
:1006C800780872020318692B6A2B822B0130F40018
:1006D80072087802890A712BF435890B702B74081B
:1006E800013EF5007208023E890A7B2BF535890B1D
:1006F8007A2B7508FF3A21008E00992B0130F400FF
:1007080078087202890A892BF435890B882B7408BA
:10071800013EF5007808023E890A932BF535890BCE
:10072800922B7508FF3A21008E00080070302100D6
:10073800990007308C003F308E0023008E018C0119
:10074800073024008C002100951380302400940089
:10075800363095000130960020000C350E3980386F
:10076800240092008B170B1720009111210091157E
:02077800080077
:020000040001F9
:04000E00E4FFFFFF0D
:00000001FF
